DRIVERS10  CREATED BY  MACRO  ON 3-APR-86 AT 20:50	PAGE 1

SYMBOL CROSS REFERENCE                                  CREF

SYMBOL	VALUE		REFERENCES

AC.ENA	= 000200	#61-4782    64-5046
ADRSAV	= ******  GX	*19-1989    20-2044   *20-2049   *21-2083    21-2093   *21-2094
ALLDON	  016620 R	 66-5249    67-5299    67-5304   #67-5310
AOE   	= 001000	#8-404      10-717     10-728
ATCBLK	  014640 R	#62-4826    64-5044
A.EF  	= 000020	*10-770    #11-1233   *11-1335   *11-1436    19-1939   *19-1941   *21-2101    30-2637    51-4224
A.HA  	= ******  GX	 19-2002    63-4884
BCFHDS	  011142 R	 40-3669   #40-3705
BCFILF	  011076 R	 40-3661   #40-3678    40-3699    40-3708
BCFLDR	  011162 R	 40-3671   #40-3714
BCFLDV	  011170 R	 40-3672   #40-3720
BCFRDS	  011076 R	 40-3668   #40-3683
BCFSDO	  011122 R	 40-3670   #40-3696
BCFSTR	  011204 R	 40-3667   #40-3733
BCFTAB	  011060 R	 40-3658    40-3664   #40-3666    40-3667    40-3668    40-3669    40-3670    40-3671    40-3672
BC.HDS	= ******  GX	 35-3296    40-3669    53-4483
BC.LDR	= ******  GX	 40-3671
BC.LDV	= ******  GX	 40-3672
BC.RDS	= ******  GX	 40-3668
BC.SDS	= ******  GX	 40-3670
BC.STR	= ******  GX	 19-2032    21-2068    40-3667    52-4268
BIT0  	= 000001	#11-1229    22-2225   #22-2240    23-2331    23-2348    25-2420    25-2436    25-2452    28-2539
                         30-2623    35-3274   #46-4047    46-4058    47-4088    51-4213   #61-4716    61-4759
BIT1  	= 000002	#11-1229    22-2227   #22-2240    23-2330    23-2347    25-2421    25-2437    25-2453    28-2539
                        #46-4047    46-4060    47-4087   #61-4716
BIT10 	= 002000	#11-1229   #22-2240    22-2274    23-2317    23-2337    28-2527   #46-4047    47-4078    49-4151
                        #61-4716
BIT11 	= 004000	#11-1229   #22-2240    22-2273    23-2316    23-2336    28-2522   #46-4047    47-4077    49-4149
                        #61-4716
BIT12 	= 010000	#11-1229   #22-2240    22-2272    23-2315    23-2335    28-2519   #46-4047    47-4076    47-4095
                         49-4147   #61-4716
BIT13 	= 020000	#11-1229   #22-2240    22-2271    23-2314    28-2516   #46-4047    47-4075    47-4094    49-4145
                        #61-4716
BIT14 	= 040000	#11-1229   #22-2240    22-2270    23-2313    28-2513   #46-4047    47-4074    47-4093    49-4142
                        #61-4716
BIT15 	= 100000	#11-1229   #22-2240    22-2269    23-2312    28-2510    35-3296   #46-4047    47-4073    49-4138
                         52-4268    53-4483   #61-4716
BIT2  	= 000004	#11-1229    22-2229   #22-2240    23-2326    23-2346    25-2422    25-2438    25-2454   #46-4047
                         46-4062    47-4086   #61-4716
BIT3  	= 000010	#11-1229   #22-2240    23-2325    23-2345    25-2423    25-2439    25-2455   #46-4047    46-4064
                         47-4085   #61-4716
BIT4  	= 000020	#11-1229    22-2232   #22-2240    23-2324    23-2344    25-2424    25-2440    25-2456   #46-4047
                         47-4084   #61-4716
BIT5  	= 000040	#11-1229    22-2234   #22-2240    23-2323    23-2343    25-2425    25-2441   #46-4047    47-4083
                        #61-4716
BIT6  	= 000100	#11-1229   #22-2240    23-2322    23-2342    25-2426   #46-4047    47-4082   #61-4716
BIT7  	= 000200	#11-1229   #22-2240    23-2321    23-2341    25-2427    28-2535   #46-4047    47-4081   #61-4716
                         61-4782
BIT8  	= 000400	#11-1229   #22-2240    23-2319    23-2339    25-2428    28-2532    35-3274   #46-4047    47-4080
                         49-4155   #61-4716
BIT9  	= 001000	#11-1229   #22-2240    23-2318    23-2338    25-2429    28-2529   #46-4047    47-4079    49-4153
                        #61-4716
DRIVERS10  CREATED BY  MACRO  ON 3-APR-86 AT 20:50	PAGE 2

SYMBOL CROSS REFERENCE                                  CREF

SYMBOL	VALUE		REFERENCES

BLKTT 	= ******  GX	 21-2149
BPARER	= 000020	#11-1229   #22-2240   #46-4047   #61-4716
BUFAIL	  015434 R	#64-5018    64-5028    64-5035
BUSA16	= 000020	#23-2324    44-3978
BUSA17	= 000040	#23-2323    44-3978
BYTESA	= ******  GX	*19-1990   *19-2013    19-2016    20-2046    20-2048   *20-2050   *21-2082    21-2088   *21-2090
                        *21-2095    21-2098
CDBA  	= ******  GX	*52-4310
CDBPCK	= 020000	#47-4094    53-4439
CDBRCK	= 040000	#47-4093    53-4435
CDBSCK	= 010000	#47-4095    53-4443
CDCC  	= ******  GX	*52-4309    56-4566
CDD   	= 000020	#11-1229   #22-2240   #46-4047   #61-4716
CDDB  	= ******  GX	 53-4433    53-4469
CDSB16	= 000020	#47-4084
CDSB17	= 000040	#47-4083
CDSDER	= 004000	#47-4077
CDSDLT	= 002000	#47-4078    53-4426
CDSEOF	= 020000	#47-4075    53-4418
CDSERR	= 100000	#47-4073
CDSHEM	= 000004	#47-4086    53-4451
CDSIEN	= 000100	#47-4082    52-4311    52-4325    52-4328
CDSNXM	= 001000	#47-4079    53-4426
CDSOFL	= 010000	#47-4076    52-4301    53-4410
CDSPAK	= 000002	#47-4087
CDSPWC	= 000400	#47-4080    54-4506
CDSRCK	= 040000	#47-4074    53-4457
CDSRDY	= 000200	#47-4081    53-4430
CDSRED	= 000001	#47-4088    52-4311
CDST  	= ******  GX	 52-4301   *52-4311    52-4325   *52-4328    53-4409    53-4467    53-4469   *54-4506    56-4559
                         56-4564
CDSTOL	= 000010	#47-4085
CHNPNT	= 000001	#11-1229   #22-2240   #46-4047   #61-4716
CHRINT	= 020000	#23-2314    35-3210    39-3505    39-3527    42-3839
CLIOD 	  000374 R	#8-460      9-668
CLRBUF	  016474 R	 63-4869    63-4869    66-5281   #66-5284
CLSFIL	  015730 R	 65-5095    65-5098    65-5101   #65-5105
CNUPE 	= 000002	#11-1229   #22-2240   #46-4047   #61-4716
CNVTBL	  014654 R	#62-4839    66-5214
CPE   	= 000010	#8-410
CPUNUM	= 000002	#11-1229   #22-2240   #46-4047   #61-4716
CRBFLN	= ******  GX	 52-4267    52-4309
CRBUFF	= ******  GX	 52-4257    52-4310
CRCEVF	= ******  GX	*52-4239    52-4250    52-4320
CRDCLR	  013556 R	 51-4207   #54-4507
CRDINT	  013026 R	 51-4205   #52-4326
CREVFG	= ******  GX	*51-4223   *51-4224    51-4225    52-4239    52-4240    52-4271    52-4277    52-4295    52-4339
                         53-4390    53-4486    53-4489    54-4507    59-4655
CREXP 	= ******  GX	*51-4211
CRHD  	  011776 RG	#49-4135
CRHUNG	= ******  GX	*52-4336
CRINI 	  012360 R	 49-4135    49-4135   #51-4223
DRIVERS10  CREATED BY  MACRO  ON 3-APR-86 AT 20:50	PAGE 3

SYMBOL CROSS REFERENCE                                  CREF

SYMBOL	VALUE		REFERENCES

CRIOD 	  012532 R	#52-4250
CRLOOP	  012444 R	#52-4236    52-4348
CRMKT 	  012776 R	#52-4320
CRMRKT	  012276 R	#49-4160    51-4226
CRPWUP	  012352 R	#51-4218    51-4228
CRSSTV	  012310 R	#51-4201    51-4227
CRSTBK	= ******  GX	 53-4398    53-4471
CRSTK 	  012256 RG	 49-4135   #49-4135
CRSTLN	= ******  GX	 53-4471    53-4482
CRSTS 	= ******  GX	*51-4212    52-4255   *52-4274    52-4282    52-4288    52-4290   *52-4292    52-4293   *52-4308
                         52-4322    52-4329    52-4331    52-4333   *52-4335   *52-4341   *52-4344   *53-4389    53-4404
                         53-4414    53-4422    53-4459   *53-4464   *53-4490   *54-4505    56-4561   *56-4563   *56-4568
                        *56-4572   *57-4605   *58-4628   *59-4649
CRTBL 	= ******  GX	 57-4603    58-4625    59-4647
CRTRP4	  012312 R	 51-4201   #51-4205
CR.ACK	= 004000	#49-4149    52-4288    52-4292    52-4329    58-4628    59-4649
CR.HNG	= 100000	#49-4138    52-4274    52-4292    52-4331    52-4341    52-4344
CR.IOD	= 010000	#49-4147    52-4255    52-4274    52-4290    52-4329    53-4414    56-4568    58-4628
CR.IOP	= 020000	#49-4145    52-4290    52-4308    52-4329    52-4333    53-4414    54-4505    56-4561    56-4563
                         58-4628
CR.NSF	= 000400	#49-4155    52-4274    53-4459    53-4464
CR.NXD	= 001000	#49-4153    51-4212    52-4293    52-4322    53-4404    54-4505
CR.RHN	= 002000	#49-4151    52-4274    52-4292    52-4335    52-4344    53-4422
CR.SST	= 040000	#49-4142    52-4282    52-4329    52-4335    53-4389    53-4490    56-4572    57-4605
CS.EXP	= 177670	#11-1229   #22-2240   #46-4047   #61-4716
CTYLUN	= 000001	#61-4753    69-5431
C$$D11	= 000001	#46-4053
C.LEEF	= 000002	#8-461
DAG1  	= 000030	#3-129
DAG2  	= 000032	#3-128
DAG3  	= 000036	#3-126
DBINI 	  000512 R	 8-455      8-455     #9-537      9-541      9-674
DBIOD 	  000370 R	#8-457      9-667
DCK   	= 100000	#8-398
DCOMST	= 000001	#11-1229   #22-2240   #46-4047   #61-4716
DD.CHI	= 000002	#25-2437    35-3213
DD.HEM	= 000010	#25-2455    53-4453
DD.LER	= 000010	#25-2439
DD.OVF	= 000020	#25-2440    35-3218
DD.PCK	= 000002	#25-2453    53-4441
DD.PGZ	= 000001	#25-2436    35-3207
DD.RCK	= 000001	#25-2452    53-4437
DD.RME	= 000040	#25-2441    35-3197
DD.SCK	= 000004	#25-2454    53-4445
DD.SFL	= 000020	#25-2456    53-4461
DD.VFE	= 000004	#25-2438    35-3167
DEFPRI	= 000062	#61-4746    65-5114
DELHLD	= 002000	#23-2317
DEMTIM	= 000002	#23-2347    35-3171    39-3560
DEP   	= 010000	#11-1229   #22-2240   #46-4047   #61-4716
DEX   	= 000400	#11-1229   #22-2240   #46-4047   #61-4716
DEXDON	= 000004	#11-1229   #22-2240   #46-4047   #61-4716
DRIVERS10  CREATED BY  MACRO  ON 3-APR-86 AT 20:50	PAGE 4

SYMBOL CROSS REFERENCE                                  CREF

SYMBOL	VALUE		REFERENCES

DEXWD1	= 174406	#11-1229   #22-2240   #46-4047   #61-4716
DEXWD2	= 174404	#11-1229   #22-2240   #46-4047   #61-4716
DEXWD3	= 174402	#11-1229   #22-2240   #46-4047   #61-4716
DFUNC 	= 000200	#11-1229   #22-2240   #46-4047   #61-4716
DF.DMG	= 000004	#11-1229   #22-2240   #46-4047   #61-4716
DF.DMN	= 000007	#11-1229   #22-2240   #46-4047   #61-4716
DF.DOR	= 000001	#11-1229   #22-2240   #46-4047   #61-4716
DF.EHG	= 000010	#11-1229   #22-2240   #46-4047   #61-4716
DF.EHM	= 000011	#11-1229   #22-2240   #46-4047   #61-4716
DF.EMG	= 000005	#11-1229   #22-2240   #46-4047   #61-4716
DF.EMN	= 000006	#11-1229   #22-2240   #46-4047   #61-4716
DF.KLR	= 000012	#11-1229   #22-2240   #46-4047   #61-4716
DF.KLW	= 000013	#11-1229   #22-2240   #46-4047   #61-4716
DF.KLX	= 000014	#11-1229   #22-2240   #46-4047   #61-4716
DF.OFF	= 000002	#11-1229   #22-2240   #46-4047   #61-4716
DF.ON 	= 000003	#11-1229   #22-2240   #46-4047   #61-4716
DF.PDP	= 000016	#11-1229   #22-2240   #46-4047   #61-4716
DF.PEX	= 000015	#11-1229   #22-2240   #46-4047   #61-4716
DIAG1 	= 174430	#11-1229   #22-2240   #46-4047   #61-4716
DIAG2 	= 174432	#11-1229   #22-2240   #46-4047   #61-4716
DIAG3 	= 174436	#11-1229   #22-2240   #46-4047   #61-4716
DIKL10	= 000010	#11-1229   #22-2240   #46-4047   #61-4716
DLT   	= 100000	#8-374      10-793
DLYCNT	= 174400	#11-1229   #22-2240   #46-4047   #61-4716
DNBLK 	= ******  GX	*21-2129   *21-2152   *21-2163    21-2166
DNFCN 	= ******  GX	*21-2130   *21-2131   *21-2132
DNMSG 	  000442 R	#8-475      9-677
DNSTS 	= ******  GX	*21-2133   *21-2137    21-2152   *21-2155   *21-2156    21-2159   *21-2159   *21-2174
DONE  	= 000200	#23-2321
DONSTR	  004536 R	 21-2099   #21-2102    21-2111    21-2120    21-2171
DON10C	= 040000	#11-1229   #22-2240   #46-4047   #61-4716
DON10S	= 100000	#11-1229   #22-2240   #46-4047   #61-4716
DON11C	= 000100	#11-1229   #22-2240   #46-4047   #61-4716
DON11S	= 000200	#11-1229   #22-2240   #46-4047   #61-4716
DPS4  	= 040000	#11-1229   #22-2240   #46-4047   #61-4716
DRESET	= 000100	#11-1229   #22-2240   #46-4047   #61-4716
DRY   	= 000200	#8-391      9-659
DR.DTE	= 000011	#11-1229   #22-2240   #46-4047   #61-4716
DSEND 	= 000004	#11-1229   #22-2240   #46-4047   #61-4716
DS04  	= 004000	#11-1229   #22-2240   #46-4047   #61-4716
DS05  	= 002000	#11-1229   #22-2240   #46-4047   #61-4716
DS06  	= 001000	#11-1229   #22-2240   #46-4047   #61-4716
DTBUF 	= ******  GX	*11-1291   *11-1292    11-1295    11-1324    11-1329    11-1340    11-1390    11-1413   *11-1434
                        *11-1435
DTCNT 	= ******  GX	*11-1290    11-1325    11-1341    11-1433
DTCW2 	= ******  GX	*11-1312    11-1392    11-1397    11-1400
DTCW3 	= ******  GX	*11-1326   *11-1387   *11-1417    11-1420
DTE   	= 010000	#8-401
DTECMD	= 000451	#11-1229   #22-2240   #46-4047   #61-4716
DTEFLG	= 000444	#11-1229   #22-2240   #46-4047   #61-4716
DTEF11	= 000450	#11-1229   #22-2240   #46-4047   #61-4716
DTEMTD	= 000455	#11-1229   #22-2240   #46-4047   #61-4716
DRIVERS10  CREATED BY  MACRO  ON 3-APR-86 AT 20:50	PAGE 5

SYMBOL CROSS REFERENCE                                  CREF

SYMBOL	VALUE		REFERENCES

DTEMTI	= 000456	#11-1229   #22-2240   #46-4047   #61-4716
DTEXP 	= 177340	#11-1240   *11-1317    11-1323    11-1378    11-1431
DTHD  	  002056 RG	#11-1245
DTINI 	  002442 R	 11-1245    11-1245   #11-1286    11-1289    11-1343
DTNRM 	  002366 R	#11-1251    11-1356
DTOUT 	  002606 R	#11-1317    11-1359
DTRTC 	= ******  GX	*11-1294   *11-1334   *11-1404   *11-1424
DTSTK 	  002336 RG	 11-1245   #11-1245
DTTSK 	= ******  GX	*11-1335   *11-1436
DUNS  	  000460 R	#8-478      9-688
DUPE  	= 000020	#11-1229   #22-2240   #46-4047   #61-4716
DURE  	= 000004	#11-1229   #22-2240   #46-4047   #61-4716
DVA   	= 004000	#8-360      9-625      9-632
DV.EOF	= 000040	#25-2425    35-3158    40-3707    53-4420
DV.F11	= 000400	#25-2428    35-3185
DV.HNG	= 001000	#25-2429    35-3192    53-4424
DV.IOP	= 000020	#25-2424    35-3182    53-4416
DV.LOG	= 000100	 10-1178   #25-2426    35-3173    35-3189    53-4424    53-4428    53-4449
DV.NXD	= 000001	#25-2420    35-3151    53-4406
DV.OFL	= 000002	#25-2421    35-3151    35-3162    53-4406    53-4412
DV.OIR	= 000004	#25-2422    35-3151    35-3162    35-3192    53-4406    53-4412    53-4424
DV.SCN	= 000010	#25-2423    35-3206    35-3212
DV.URE	= 000200	 10-1178   #25-2427    35-3189    53-4428
DXFLAG	  014350 R	#62-4806   *63-4870    63-4921   *63-4923
DXWD1 	= 000006	#3-135
DXWD2 	= 000004	#3-136
DXWD3 	= 000002	#3-137
DXWRD1	= 002000	#11-1229   #22-2240   #46-4047   #61-4716
D$$H11	= 000010	#1-44
D.CCDR	= ******  GX	 52-4270    53-4485
D.CLPT	= ******  GX	 32-2761    35-3299
D.FEPD	= ******  GX	 19-2034    21-2103
D1011 	= 000040	#11-1229   #22-2240   #46-4047   #61-4716
EBSEL 	= 000100	#11-1229   #22-2240   #46-4047   #61-4716
EBUSPC	= 000020	#11-1229   #22-2240   #46-4047   #61-4716
EBUSPS	= 000004	#11-1229   #22-2240   #46-4047   #61-4716
ECCMSK	  000504 R	#8-509      10-877     10-893
ECCWRD	  000476 R	#8-507      10-886
ECH   	= 000100	#8-407      10-808
ECI   	= 004000	#8-433
EDONES	= 040000	#11-1229   #22-2240   #46-4047   #61-4716
EF.CRB	= 000010	#46-4064    51-4225    52-4271    52-4277    52-4295
EF.CRC	= 000001	#46-4058    52-4236    52-4240    52-4320    54-4507
EF.CRD	= 000002	#46-4060    52-4236    52-4240    52-4250    52-4339    59-4655
EF.CRS	= 000004	#46-4062    51-4225    53-4390    53-4486    53-4489
EF.IOD	= ******  GX	 10-770     11-1335    11-1436
EF.LPC	= 000002	#22-2227    31-2657    31-2662    34-3028    37-3424
EF.LPD	= 000001	#22-2225    31-2657    31-2662    32-2698    32-2747    34-3072    39-3573    40-3685    41-3804
                         42-3841    43-3900    44-3969
EF.LPQ	= 000004	#22-2229
EF.LPS	= 000020	#22-2232    30-2638    35-3138    35-3300    35-3308
EF.LPW	= 000040	#22-2234    30-2638    36-3342    41-3779
DRIVERS10  CREATED BY  MACRO  ON 3-APR-86 AT 20:50	PAGE 6

SYMBOL CROSS REFERENCE                                  CREF

SYMBOL	VALUE		REFERENCES

EF.NIR	= ******  GX	 18-1924    31-2657    31-2662    33-2902
EF.QIO	= 000001	#61-4759
EF.SEP	= 100000	#18-1919    18-1924
EF.TEF	= 000400	#18-1920    18-1924    19-1977    21-2101
EPTR  	= 000000	#11-1229   #22-2240   #46-4047   #61-4716
ERMHER	  007767 R	 35-3174   #35-3259
ERMHNG	  010004 R	 35-3193   #35-3261
ERMNXD	  007715 R	 35-3152   #35-3253
ERMOFL	  007735 R	 35-3163   #35-3255
ERMVFE	  007750 R	 35-3168   #35-3257
ERR   	= 100000	#8-387     #23-2312    39-3505
ERR10C	= 010000	#11-1229   #22-2240   #46-4047   #61-4716
ERR10S	= 020000	#11-1229   #22-2240   #46-4047   #61-4716
ERR11C	= 000001	#11-1229   #22-2240   #46-4047   #61-4716
ERR11S	= 000002	#11-1229   #22-2240   #46-4047   #61-4716
EXSP  	  014350 RG	#62-4802    63-4865
E.FCRB	= 000004	#46-4063    52-4269
E.FCRC	= 000001	#46-4057    49-4160
E.FCRD	= 000002	#46-4059
E.FCRS	= 000003	#46-4061    53-4484
E.FLPC	= 000002	#22-2226    30-2604
E.FLPD	= 000001	#22-2224
E.FLPQ	= 000003	#22-2228    35-3246
E.FLPS	= 000005	#22-2231    35-3298
E.FLPW	= 000006	#22-2233    30-2606    36-3349
E.FQIO	= 000001	#61-4758    68-5393    69-5431
E.IOD 	= ******  GX	 8-458      8-461      11-1249
E.NIR 	= ******  GX	 8-464      11-1247
FCN   	  004606 R	 21-2076   #21-2124
FCNBD 	  004614 R	 21-2079   #21-2126
FEDRV 	  003622 R	 18-1935    18-1935   #19-1937    19-1983    19-1986    19-2021    19-2030
FEHD  	  003322 RG	#18-1935
FER   	= 000020	#8-409
FESTK 	  003602 RG	 18-1935   #18-1935
FETBL 	= ******  GX	*19-1952   *19-1987   *19-2018   *19-2029   *21-2114    21-2161
FETSK 	= ******  GX	 19-1939   *19-1941   *21-2101
FE.DET	= 040000	#18-1930    19-1952    19-2018    19-2029    20-2041    20-2052    21-2114
FE.DTE	= 020000	#18-1931    19-1952    19-2029    21-2073    21-2087    21-2100    21-2114
FE.SER	= 004000	#18-1932    19-1952    19-1987    19-2029    21-2114
FE.STR	= 002000	#18-1933    21-2128    21-2170
FILADR	  014464 R	#62-4820    62-4828    65-5159    65-5161
FILBLK	  014430 R	#62-4819    63-4937    63-4958    63-4977    64-5043    68-5322
FILCLS	  016762 R	 66-5241    66-5241    66-5247    66-5247   #68-5378
FILERA	  015430 R	#64-5014    64-5049    64-5055    64-5059
FILERR	  016314 R	 64-5014    66-5183    66-5193    66-5231    66-5236   #66-5246
FILERX	  016324 R	 65-5105   #66-5247
FILFNA	  016624 R	 63-4952    63-4952    63-4984    63-4984   #68-5318
FILQIO	  016774 R	 63-4910    63-4910    64-5048    64-5048    68-5323    68-5374   #68-5393
FMT22 	= 010000	#8-432
FNDFIL	  015170 R	 63-4930   #63-4936    63-5004
FORPRO	= 000020	#11-1229   #22-2240   #46-4047   #61-4716
GO    	= 000001	#23-2331    34-3060    39-3515    39-3540    44-3996
DRIVERS10  CREATED BY  MACRO  ON 3-APR-86 AT 20:50	PAGE 7

SYMBOL CROSS REFERENCE                                  CREF

SYMBOL	VALUE		REFERENCES

GOERR 	= 000001	#23-2348    39-3560
HCE   	= 000200	#8-406
HCI   	= 002000	#8-434
HCRC  	= 000400	#8-405
HDRBFE	  014426 R	#62-4818   *64-5038    68-5329
HDRBLK	  014422 R	#62-4816   *64-5057   *68-5337    68-5351
HDRBUF	  014424 R	#62-4817   *64-5036    66-5280   *66-5285    68-5350
HDR64 	= ******	 65-5125
HIBYTE	= 177400	#11-1229   #22-2240   #22-2289    32-2846   #46-4047   #61-4716
H.IPC 	= 000076	#61-4763    65-5154
H.ISP 	= 000100	#61-4764    65-5155
H.LUN 	= 000132	#61-4766    63-4885
H.LUT 	= ******  GX	 19-2006
H.NLUN	= 000130	#61-4765    66-5175
IAE   	= 002000	#8-403      10-717     10-728
IE.ABO	= 177761	 19-1970    21-2115    41-3798
IE.ACT	= 177771	 67-5303
IE.BAD	= 177777	 21-2155
IE.BLK	= 177754	 10-730     11-1306
IE.DNR	= 177775	 9-656
IE.IFC	= 177776	 9-573      11-1344    33-2952
IE.OFL	= 177677	 43-3879
IE.VER	= 177774	 10-715     10-858     11-1430    21-2174
IE.WLK	= 177764	 10-724     11-1427
IFLOP 	= 100000	#11-1229   #22-2240   #46-4047   #61-4716
ILF   	= 000001	#8-413      10-717
ILR   	= 000002	#8-412      10-717
INITCR	  013542 RG	 51-4218    51-4218    51-4229    51-4229    52-4244    52-4244    52-4337    52-4337   #54-4505
                         58-4627    58-4627
INITLP	  010354 RG	 30-2629    30-2629    30-2642    30-2642    31-2666    31-2666   #37-3404
INSHD 	  013750 RG	#62-4799
INSMSG	  017364 R	 69-5411   #69-5487
INSTAL	  014700 RG	 62-4799    62-4799   #63-4864    63-4867    67-5310
INSTK 	  014230 RG	 62-4799   #62-4799
INTENB	= 000100	#23-2322    34-3036    34-3040    34-3060    36-3379    37-3417    39-3515    39-3540    41-3784
                         44-3996
INTROF	= 000010	#11-1229   #22-2240   #46-4047   #61-4716
INTRON	= 000040	#11-1229   #22-2240   #46-4047   #61-4716
INTSON	= 000001	#11-1229   #22-2240   #46-4047   #61-4716
INT10S	= 000400	#11-1229   #22-2240   #46-4047   #61-4716
INT11C	= 002000	#11-1229   #22-2240   #46-4047   #61-4716
INT11S	= 004000	#11-1229   #22-2240   #46-4047   #61-4716
IOABT 	  004554 R	 21-2069   #21-2107
IODN  	  004162 R	 19-1978   #19-2023
IODNCR	  013734 R	 56-4573    56-4573    57-4606   #59-4655
IO.ACW	= 007000	 64-5042
IO.APV	= 014010	 63-4905
IO.ATT	= 001400	 21-2080
IO.DAC	= 010000	 33-2939    68-5378
IO.FNA	= 004400	 68-5318
IO.KIL	= 000012	 33-2958
IO.RLB	= 001000	 9-569      11-1301    33-2935
DRIVERS10  CREATED BY  MACRO  ON 3-APR-86 AT 20:50	PAGE 8

SYMBOL CROSS REFERENCE                                  CREF

SYMBOL	VALUE		REFERENCES

IO.RVB	= 010400	 33-2937    68-5338    68-5360
IO.WLB	= 000400	 9-571      11-1251    11-1298    21-2141    33-2931    35-3246    69-5431
IO.WLV	= 000500	 11-1303
IO.WVB	= 011000	 8-473      33-2933    68-5343
IPAERR	  015674 R	#65-5098    65-5149
IS.SUC	= 000001	 10-712     10-966     11-1419    21-2133    33-2965    44-3963
KLPWRF	= 000010	#11-1229   #22-2240   #46-4047   #61-4716
KT11  	= ******	 65-5097    65-5147
LBLBFE	  014420 R	#62-4815   *64-5031    66-5178    66-5187
LBLBLK	  014412 R	#62-4812   *64-5053    66-5190   *68-5362    68-5363
LBLBUF	  014416 R	#62-4814   *64-5029    66-5276   *66-5284    68-5361
LBLNUM	  014414 R	#62-4813   *65-5167    66-5190
LOAD11	= 000004	#11-1229   #22-2240   #46-4047   #61-4716
LOBYTE	= 000377	#22-2288    22-2289    41-3798    43-3879    44-3963
LOINIT	= 000400	#23-2319
LPALOC	= 000214	#22-2219
LPBCTR	= 000006  G	#23-2352    34-3058    39-3507   *39-3524    39-3525   *39-3539   *44-3950   *44-3977   *44-3986
LPBSAD	= 000004  G	#23-2350    39-3526   *39-3531   *44-3976   *44-3984   *44-3985
LPCBUF	= 000014  G	#23-2365   *36-3359   *36-3362    39-3535
LPCCTR	= 000015  G	#23-2366
LPCEVF	= ******  GX	*31-2661    32-2698    33-2902    34-3028
LPCKSM	= 000017  G	#23-2369    34-3057    39-3504
LPCSA 	= ******  GX	*30-2621    32-2704    34-3033   *37-3416    39-3497    41-3782    42-3836    43-3872
LPCSM 	= ******  GX	*34-3056   *34-3057    35-3275   *36-3371   *39-3503   *39-3504
LPCSRA	= 000000  G	#23-2311
LPCSRB	= 000002  G	#23-2333    35-3171    35-3195    35-3216    39-3560
LPDCLR	  010424 R	 30-2616   #37-3418
LPDINT	  006776 R	 30-2614   #34-3037
LPEMSG	  007662 R	 35-3236    35-3246   #35-3247
LPEMSX	  007675 R	 35-3232   #35-3251
LPERUN	  007672 R	*35-3241   #35-3249
LPEVFG	= ******  GX	*30-2636   *30-2637    30-2638    31-2661    31-2662    32-2747    34-3072    35-3138    35-3300
                         35-3308    36-3342    37-3424    39-3573    40-3685    41-3779    41-3804    42-3841    43-3900
                         44-3969
LPEXPA	= ******  GX	 37-3415
LPEXPZ	= ******  GX	 35-3274
LPHD  	  005060 RG	#27-2502
LPHUNG	= ******  GX	*34-3052
LPINI 	  005450 R	 27-2502    27-2502   #30-2635
LPIOD 	  005622 R	#32-2697
LPITH 	= ******  GX	 32-2717    32-2736    34-3048    34-3064   *37-3419    39-3498   *39-3567    41-3777   *41-3781
                         42-3834   *44-3948
LPLOOP	  005534 R	#31-2656    34-3082
LPMCB 	= ******  GX	 39-3530   *44-3981    44-3984
LPMKT 	  006742 R	#34-3027
LPMRKT	  005360 R	#30-2603    30-2639
LPNIR 	  006502 R	 32-2772   #33-2901    33-2969    33-2995
LPPCTR	= 000010  G	#23-2356   *32-2819    36-3375   *36-3375    39-3553   *39-3553    41-3785   *41-3785    42-3838
                        *42-3838
LPQDPB	  007640 R	*35-3237    35-3242   #35-3245
LPRAMD	= 000012  G	#23-2360   *36-3361    39-3532
LPRMA 	= ******  GX	 32-2785   *32-2790    32-2801   *32-2840    32-2843    41-3773
DRIVERS10  CREATED BY  MACRO  ON 3-APR-86 AT 20:50	PAGE 9

SYMBOL CROSS REFERENCE                                  CREF

SYMBOL	VALUE		REFERENCES

LPRMC 	= ******  GX	*32-2791    32-2806    32-2825   *32-2855
LPRMZ 	= ******  GX	 32-2786    32-2810   *32-2838    32-2844
LPRTRY	= 000012	#22-2220    35-3276    43-3871
LPRTY 	= ******  GX	*34-3053    35-3187    35-3277   *39-3513   *39-3562   *43-3871
LPSIZE	= ******  GX	 32-2767    34-3078    37-3421    40-3653    41-3770    42-3831
LPSSTV	  005404 R	#30-2608    30-2640
LPSTBK	= ******  GX	 35-3144    35-3273    35-3281    35-3291
LPSTK 	  005340 RG	 27-2502   #27-2502
LPSTLN	= ******  GX	 35-3281    35-3295
LPTBL 	= ******  GX	 32-2700    32-2760    34-3031    37-3407    40-3653    41-3770    42-3831
LPTDAT	= 000016  G	#23-2368
LPTHD 	= ******  GX	 32-2709    32-2745   *32-2857    34-3044    35-3176    41-3787    43-3884   *43-3899
LPTPAR	= 000040	#23-2343    35-3171    39-3560
LPTPBT	= 010000	#23-2335
LPTRP4	  005406 R	 30-2609   #30-2613
LPUNIT	= ******  GX	*39-3491    39-3493
LPUTBL	= ******  GX	 33-2928    39-3496
LPWRUP	  005442 R	#30-2628    30-2641
LP.CLR	= 002000	#28-2527    35-3169    35-3198    36-3351    36-3353
LP.EOF	= 000200	#28-2535    32-2803    35-3156    36-3368    36-3370
LP.F10	= 000400	#28-2532    32-2749    32-2876    35-3224    35-3309    40-3655
LP.HNG	= 100000	#28-2510    32-2749    34-3046    34-3074    35-3190    44-3947
LP.LIP	= 001000	#28-2529    32-2722    32-2749    32-2779    32-2782    32-2808    36-3354    41-3775    44-3940
LP.MCH	= 010000	#28-2519    32-2749    39-3522    39-3538    44-3942    44-3947    44-3987
LP.PZI	= 020000	#28-2516    32-2817    32-2821    35-3204    39-3551
LP.SST	= 040000	#28-2513    32-2728    32-2803    34-3071    35-3137    35-3311    39-3572    40-3684    43-3881
LP.UNT	= 000003	#28-2539    35-3239    35-3293    37-3410    39-3495
LP.WAT	= 004000	#28-2522    32-2734    32-2749    34-3042    35-3208    35-3214    35-3229    41-3772    42-3833
                         44-3947
L$BBLK	= 000024	#61-4778
L$BFLG	= 000010	#61-4772
L$BHRB	= 000022	#61-4777    64-5057
L$BLDZ	= 000014	#61-4774
L$BMXZ	= 000016	#61-4775
L$BPAR	= 000004	#61-4771
L$BPRI	= 000012	#61-4773
L$BSA 	= 000020	#61-4776
L$BTSK	= 000000	#61-4770
L$$P20	= 000002	#1-38       32-2701    34-3030    37-3406    40-3653    41-3770    42-3831
MCPE  	= 020000	#8-359      10-713
MDPE  	= 000400	#8-381      10-793
MEFCN 	  004616 R	 21-2125   #21-2128
MEMPAR	= 000020	#23-2344    35-3171    39-3560
MKDNR 	  000404 RG	#8-466      9-683
MKSCDP	  005372 R	#30-2605    36-3347
MNTBLK	  014646 R	#62-4831    63-4907
MNTSYD	  014746 R	#63-4879    63-4926
MODE00	= 000004	#23-2326    32-2783    32-2809    32-2812
MODE01	= 000010	#23-2325    32-2783
MOL   	= 010000	#8-388      9-659
MPE11 	= 001000	#11-1229   #22-2240   #46-4047   #61-4716
MRKDT 	  002406 R	#11-1253    11-1357
DRIVERS10  CREATED BY  MACRO  ON 3-APR-86 AT 20:50	PAGE 10

SYMBOL CROSS REFERENCE                                  CREF

SYMBOL	VALUE		REFERENCES

MSGDPB	  000422 R	#8-472     *9-677      9-682     *9-688
MSGSIZ	= 000016	 8-473     #8-482
MXF   	= 001000	#8-380      10-793
M.KTAE	= 000010	#8-467     #11-1253   #30-2604   #30-2606   #49-4160
M.KTEF	= 000002	#8-467     #11-1253   #30-2604   #30-2606   #49-4160
M.KTMG	= 000004	#8-467     #11-1253   #30-2604   #30-2606   #49-4160
M.KTUN	= 000006	#8-467     #11-1253   #30-2604   #30-2606   #49-4160
NED   	= 010000	#8-377      10-719
NEM   	= 004000	#8-378      10-719
NODADR	= ******  GX	 19-1949   *19-1950    19-1982   *19-1988    19-2025   *19-2026    21-2077    21-2107   *21-2113
NTRDMS	  002424 R	 11-1251   #11-1257    11-1258
NTRDSZ	= 000016	 11-1251   #11-1258
NULSTP	= 000040	#11-1229   #22-2240   #46-4047   #61-4716
NUPE  	= 000002	#11-1229   #22-2240   #46-4047   #61-4716
NXTHDR	  016644 R	 66-5182    66-5182    66-5230    66-5230   #68-5329
N.DID 	= 000024	#61-4792
N.FID 	= 000000	#61-4786    63-4977    64-5043
N.FNAM	= 000006	#61-4787    63-4937    63-4958
N.FTYP	= 000014	#61-4788
N.FVER	= 000016	#61-4789
N.NEXT	= 000022	#61-4791
N.STAT	= 000020	#61-4790
OFFLIN	= 000200	#23-2341
ONLINE	= 004000	#23-2316    35-3160    36-3339    43-3874
OPI   	= 020000	#8-400
OPTVFU	= 004000	#23-2336    35-3216
PAGZRO	= 040000	#23-2313    35-3202    36-3373    39-3505    39-3549
PARENB	= 000002	#23-2330    34-3060    36-3379    37-3417    39-3515    39-3540    41-3784    44-3996
PARFND	  015732 R	 65-5089   #65-5109
PARMSG	  017405 R	 69-5422   #69-5489
PBTHRD	= 000004	#22-2279    22-2281    22-2282    22-2283    32-2867    33-2977    33-2978
PERCLR	= 001000	#11-1229   #22-2240   #46-4047   #61-4716
PGE   	= 002000	#8-379      10-793
PGM   	= 001000	#8-390
PHYS  	= 100000	#11-1229   #22-2240   #46-4047   #61-4716
PIDENT	= 000000	#11-1229   #22-2240   #46-4047   #61-4716
PRI7  	= 000340	#11-1229   #22-2240   #46-4047   #61-4716
PROPNT	= 000021	#11-1229   #22-2240   #46-4047   #61-4716
PRTOFF	= 004000	#11-1229   #22-2240   #46-4047   #61-4716
PR0   	= 000000	#11-1229   #22-2240   #46-4047   #61-4716
PR1   	= 000040	#11-1229   #22-2240   #46-4047   #61-4716
PR2   	= 000100	#11-1229   #22-2240   #46-4047   #61-4716
PR3   	= 000140	#11-1229   #22-2240   #46-4047   #61-4716
PR4   	= 000200	#11-1229   #22-2240    34-3055    36-3382   #46-4047   #61-4716
PR5   	= 000240	#11-1229   #22-2240   #46-4047   #61-4716
PR6   	= 000300	#11-1229   #22-2240   #46-4047   #61-4716
PR7   	= 000340	#11-1229    21-2138   #22-2240    31-2660    32-2744   #46-4047    52-4238   #61-4716
PS    	= 177776	 9-623      9-665      9-680     #11-1229    11-1337    11-1354    19-1938   *19-1938    20-2053
                        *20-2053   *20-2058    21-2138   *21-2138   *21-2158   #22-2240    31-2660   *31-2660   *31-2663
                         32-2744   *32-2744   *32-2751    34-3055   *34-3055   *34-3067    36-3382   *36-3382   *36-3384
                         39-3491    43-3883   *43-3883   #46-4047    52-4238   *52-4238   *52-4241   #61-4716    66-5250
                        *66-5250    67-5292   *67-5292
DRIVERS10  CREATED BY  MACRO  ON 3-APR-86 AT 20:50	PAGE 11

SYMBOL CROSS REFERENCE                                  CREF

SYMBOL	VALUE		REFERENCES

PSWW1 	= 000005	#11-1229   #22-2240   #46-4047   #61-4716
PSWW10	= 000014	#11-1229   #22-2240   #46-4047   #61-4716
PSWW11	= 000015	#11-1229   #22-2240   #46-4047   #61-4716
PSWW12	= 000016	#11-1229   #22-2240   #46-4047   #61-4716
PSWW13	= 000017	#11-1229   #22-2240   #46-4047   #61-4716
PSWW2 	= 000006	#11-1229   #22-2240   #46-4047   #61-4716
PSWW3 	= 000007	#11-1229   #22-2240   #46-4047   #61-4716
PSWW4 	= 000010	#11-1229   #22-2240   #46-4047   #61-4716
PSWW5 	= 000011	#11-1229   #22-2240   #46-4047   #61-4716
PSWW6 	= 000012	#11-1229   #22-2240   #46-4047   #61-4716
PSWW7 	= 000013	#11-1229   #22-2240   #46-4047   #61-4716
PUDADR	  014410 R	#62-4811   *63-4887    63-4916   *63-5003    65-5116    66-5199
PULSE 	= 000020	#11-1229   #22-2240   #46-4047   #61-4716
PUTR50	  017266 R	 69-5418    69-5418    69-5425    69-5425   #69-5449
PUTR51	  017276 R	 69-5450    69-5450   #69-5458
PUTSTR	  017256 R	 69-5412    69-5412    69-5414    69-5414    69-5416    69-5416    69-5423    69-5423   #69-5440
                         69-5441
QIOSTS	  014470 R	#62-4821    68-5393    68-5396
QSIZE 	= 000023	#11-1229   #22-2240   #46-4047   #61-4716
Q.IOAE	= 000012	#8-473     #11-1251   #35-3246
Q.IOEF	= 000006	#8-473     #11-1251   #35-3246
Q.IOFN	= 000002	#8-473     #11-1251   #35-3246
Q.IOLU	= 000004	#8-473     #11-1251   #35-3246
Q.IOPL	= 000014	#8-473     *9-677     *9-688     #11-1251   *35-3237   #35-3246
Q.IOPR	= 000007	#8-473     #11-1251   #35-3246
Q.IOSB	= 000010	#8-473     #11-1251   #35-3246
RAMIS0	= 010000	#11-1229   #22-2240   #46-4047   #61-4716
RAMLOD	= 000003	#23-2329    32-2812
RAMPAR	= 000010	#23-2345    35-3171    35-3195    39-3560
RCVBLK	  014352 R	#62-4808    63-4866    63-4898
REDHDR	  016660 R	 64-5058    64-5058   #68-5337
REDLBL	  016722 R	 64-5054    64-5054    66-5192    66-5192   #68-5359
REQBLK	  014356 R	#62-4809    62-4810    63-4957    65-5070    66-5251    67-5295    67-5296    69-5417
REQTSK	  016506 R	 66-5242   #67-5292
RETALL	  016416 R	#66-5268
RETBUF	  016440 R	 64-5018    64-5018    66-5240    66-5240    66-5269   #66-5274
RETNOD	  016330 R	 63-5008   #66-5249    67-5306
RETRY 	= 000005	#8-447      9-579     #11-1238    11-1294
RETXXX	  016720 R	 68-5330    68-5332   #68-5355
RFMAD0	= 100000	#11-1229   #22-2240   #46-4047   #61-4716
RFMAD1	= 040000	#11-1229   #22-2240   #46-4047   #61-4716
RFMAD2	= 020000	#11-1229   #22-2240   #46-4047   #61-4716
RFMAD3	= 010000	#11-1229   #22-2240   #46-4047   #61-4716
RM    	= 000010	#11-1229   #22-2240   #46-4047   #61-4716
RMR   	= 000004	#8-411      10-717
RPAS  	= 000016	#8-417
RPBA  	= 000004	#8-366
RPBUF 	= ******  GX	*9-562     *9-567     *9-568     *9-577      9-639      9-664      9-670      9-672     *10-768
                        *10-769     10-772     10-872     10-990
RPCNT 	= ******  GX	*9-560      9-640      10-822
RPCS1 	= 000000	#8-356
RPCS2 	= 000010	#8-372      9-617      9-636      10-719     10-793
DRIVERS10  CREATED BY  MACRO  ON 3-APR-86 AT 20:50	PAGE 12

SYMBOL CROSS REFERENCE                                  CREF

SYMBOL	VALUE		REFERENCES

RPDA  	= 000006	#8-368
RPDBR 	= 000022	#8-421
RPDC  	= 000034	#8-437     *9-663
RPDS  	= 000012	#8-385      9-657
RPDT  	= 000026	#8-425
RPEC1 	= 000044	#8-439      10-856
RPEC2 	= 000046	#8-441      10-880
RPER1 	= 000014	#8-396      9-661      10-716
RPEXP 	= 176700	#8-352      9-617      9-620      9-636      10-703     10-1179
RPHD  	  000070 RG	#8-454
RPLA  	= 000020	#8-419
RPMR  	= 000024	#8-423
RPOF  	= 000032	#8-430
RPRNA 	= ******  GX	*9-559      9-635      9-669      10-764
RPRTC 	= ******  GX	*9-579     *10-751
RPSN  	= 000030	#8-427
RPSTK 	  000350 RG	 8-455     #8-455
RPTSK 	= ******  GX	*10-770
RPUNIT	= ******  GX	*9-561      9-619      9-637
RPWC  	= 000002	#8-364      10-820     10-975
RPWLO 	  000400 R	#8-463      9-538
RSTERR	= 001000	#23-2318    36-3379    37-3417    41-3784
RSX$$E	= 000050	#3-101
RSX$$F	= 000101	#3-109     #3-112      3-120
RSX$$K	= 000126	#3-105
RSX$$V	= 000015	#3-100
RWRBLK	  016754 R	 68-5352    68-5352    68-5364    68-5364   #68-5373
RWRHDR	  016676 R	 68-5339   #68-5349
R$$E16	= ******	 10-914     10-1055
R$$E18	= 000001	#8-335      8-505      10-845     10-993
R$$JPO	= ******	 8-484      9-581      9-645      10-705     10-824     10-837     10-969     10-1079
R$$11D	= 000001	#1-47
R.AT  	= ******  GX	 19-2001
R.DP  	= ******  GX	 19-2010
R.FC  	= ******  GX	 9-569      9-571      11-1298    11-1301    11-1303    19-1994    21-2078    21-2080    33-2929
                         33-2958
R.LU  	= ******  GX	 19-1996
R.PB  	= ******  GX	 9-589      9-590     *9-604     *9-610      9-638      9-663      10-765     11-1307    11-1310
                         19-2014    19-2015    21-2082    21-2083    32-2867    33-2977    33-2981
R50TBL	  017350 R	 69-5464   #69-5479
SCD   	= 000040	#11-1229   #22-2240   #46-4047   #61-4716
SETLUN	  016110 R	#66-5175
SETSTD	  015600 R	#65-5068
SF.IR 	= 040000	#61-4750    67-5294
SF.TA 	= 000001	#61-4749    67-5294
SNSTR 	  004224 R	 19-2019    19-2019   #19-2032    20-2056    20-2056    21-2167    21-2167
SSTSCR	  013136 R	 52-4284    52-4284    52-4303    52-4303   #53-4389
SSTSLP	  007164 R	 32-2730    32-2730   #35-3135
STAT  	= 174434	#11-1229   #22-2240   #46-4047   #61-4716
STATD 	= 000034	#3-127
STATUS	= 000022	#11-1229   #22-2240   #46-4047   #61-4716
STDADR	= 014370 R	#62-4810    65-5068    66-5268   *66-5272    67-5293    69-5419
DRIVERS10  CREATED BY  MACRO  ON 3-APR-86 AT 20:50	PAGE 13

SYMBOL CROSS REFERENCE                                  CREF

SYMBOL	VALUE		REFERENCES

STSWD 	= ******  GX	*19-1951   *19-2020    19-2023    19-2024   *19-2027   *21-2085   *21-2086
SWR   	= 177570	#11-1229   #22-2240   #46-4047   #61-4716
SWSLLT	= 100000	#11-1229   #22-2240   #46-4047   #61-4716
SYFLAG	  014351 R	#62-4807    63-4929   *63-4932
SYMNTD	  015102 R	 63-4889    63-4911   #63-4915
SYMNT1	  015146 R	 63-4920    63-4922   #63-4928
SYNTIM	= 000004	#23-2346    35-3171    39-3560
S.DRFN	= 000034	#61-4793    62-4819
S.FW  	= ******  GX	*67-5294
S.TD  	= ******  GX	 69-5420
TASKNF	  015324 R	 63-4881    63-4913    63-4953   #63-4990    63-4995    63-4997    63-4999    63-5002
TB.ABO	= 040000	#22-2270    32-2794    41-3795    41-3798
TB.DON	= 100000	#22-2269    40-3727    41-3798    43-3879    44-3963
TB.EOF	= 020000	#22-2271    22-2275    32-2799    40-3709
TB.LPC	= 010000	#22-2272    22-2275    32-2815    40-3700
TB.RMD	= 004000	#22-2273    22-2275    32-2829    40-3715
TB.SFN	= 036000	#22-2275    32-2796    44-3953
TB.VFD	= 002000	#22-2274    22-2275    40-3721
TENAD1	= 174410	#11-1229   #22-2240   #46-4047   #61-4716
TENAD2	= 174412	#11-1229   #22-2240   #46-4047   #61-4716
TESTLP	  010164 R	 32-2738    32-2738   #36-3338
TEST00	= 000400	#23-2339
TEST01	= 001000	#23-2338
TEST02	= 002000	#23-2337
TNAD1 	= 000010	#3-133
TNAD2 	= 000012	#3-134
TNCERR	  015720 R	#65-5103    65-5163
TNFERR	  015414 R	 63-4993   #63-5006
TOBM  	= 000004	#11-1229   #22-2240   #46-4047   #61-4716
TOIP  	= 000002	#11-1229   #22-2240   #46-4047   #61-4716
TOIT  	= 000001	#11-1229   #22-2240   #46-4047   #61-4716
TO10  	= 000200	#11-1229   #22-2240   #46-4047   #61-4716
TO10AD	= 174420	#11-1229   #22-2240   #46-4047   #61-4716
TO10BC	= 174414	#11-1229   #22-2240   #46-4047   #61-4716
TO10BM	= 000001	#11-1229   #22-2240   #46-4047   #61-4716
TO10DB	= 000400	#11-1229   #22-2240   #46-4047   #61-4716
TO10DN	= 100000	#11-1229   #22-2240   #46-4047   #61-4716
TO10DT	= 174424	#11-1229   #22-2240   #46-4047   #61-4716
TO10ER	= 020000	#11-1229   #22-2240   #46-4047   #61-4716
TO10PK	= ******  GX	 19-1991
TO11  	= 000100	#11-1229   #22-2240   #46-4047   #61-4716
TO11AD	= 174422	#11-1229   #22-2240   #46-4047   #61-4716
TO11BC	= 174416	#11-1229   #22-2240   #46-4047   #61-4716
TO11BM	= 020000	#11-1229   #22-2240   #46-4047   #61-4716
TO11DB	= 004000	#11-1229   #22-2240   #46-4047   #61-4716
TO11DN	= 000200	#11-1229   #22-2240   #46-4047   #61-4716
TO11DT	= 174426	#11-1229   #22-2240   #46-4047   #61-4716
TO11ER	= 000002	#11-1229   #22-2240   #46-4047   #61-4716
TRE   	= 040000	#8-358      10-713
TSKFND	  015446 R	 63-4985   #64-5025
TSKLUN	= 000002	#61-4754    63-4880    63-4885    63-5001    68-5393
TSKMSG	  017376 R	 69-5415   #69-5488
DRIVERS10  CREATED BY  MACRO  ON 3-APR-86 AT 20:50	PAGE 14

SYMBOL CROSS REFERENCE                                  CREF

SYMBOL	VALUE		REFERENCES

TSTMOD	= 000001	#23-2327
TTBERR	  015706 R	#65-5101    65-5146
TTPEN 	= ******  GX	 8-455      11-1245    18-1935    27-2502    49-4135    62-4799
TYPBUF	  014474 R	#62-4822    69-5410    69-5429
TYPMSG	  017054 R	 63-4912    63-4912    63-4931    63-4931    63-5007    63-5007    65-5095    65-5095    65-5098
                         65-5098    65-5101    65-5101    65-5103    65-5103    66-5246    66-5246    67-5306    67-5306
                        #69-5409
T.BA  	= ******  GX	 65-5124    65-5148
T.HBCT	= ******  GX	 32-2858   *33-2982    35-3183    44-3979
T.HCAD	= ******  GX	*32-2801    32-2807    32-2818    32-2845   *33-2983   *39-3526    40-3697    40-3706    44-3976
T.HCBC	= ******  GX	 32-2715    32-2793   *32-2806   *32-2807   *33-2984   *39-3525    40-3656   *40-3657   *40-3728
                        *41-3795    41-3796   *41-3798   *43-3879    44-3950    44-3953   *44-3963
T.HEMA	= 177774	#22-2281   *33-2985    44-3991
T.HIBC	= 177776	#22-2283    32-2865    33-2978
T.HVFC	= 177775	#22-2282   *33-2989    44-3981   *44-3983
T.PN  	= ******  GX	 65-5086    65-5088
T.PZ  	= ******  GX	 65-5145
T.SZ  	= ******  GX	 65-5091
T10AD 	= 000020	#3-131
T11AD 	= 000022	#3-130
T11BC 	= 000016	#3-132
T50TBL	  017340 R	 69-5458   #69-5477
UF.TL 	= ******  GX	 63-4996
UNASG1	= 000032	#11-1229   #22-2240   #46-4047   #61-4716
UNASG2	= 000033	#11-1229   #22-2240   #46-4047   #61-4716
UNASG3	= 000034	#11-1229   #22-2240   #46-4047   #61-4716
UNASG4	= 000035	#11-1229   #22-2240   #46-4047   #61-4716
UNASG5	= 000036	#11-1229   #22-2240   #46-4047   #61-4716
UNASG6	= 000037	#11-1229   #22-2240   #46-4047   #61-4716
UNS   	= 040000	#8-399      9-661      10-717
UPE   	= 020000	#8-376      10-793
U.ACP 	= ******  GX	*63-4903
U.DACP	= ******  GX	 63-4901
U.DN  	= ******  GX	 63-4917    63-5001    66-5205
U.FB  	= ******  GX	 63-4996
U.RP  	= ******  GX	 19-2007    63-4886    63-4994
U.SZ  	= 000050	#61-4748    63-4874    63-4991    65-5120    66-5210
U.UN  	= ******  GX	 63-4918    63-5001    66-5207
U.VA  	= ******  GX	 63-4888    63-4998
VFCFF 	  006730 R	 33-2944   #33-3001
VFCTBL	  006726 R	 33-2987   #33-2999
VFUERR	= 000100	#23-2342    39-3560
VFULOD	= 000002	#23-2328    32-2809
VFURDY	= 010000	#23-2315    35-3165
VV    	= 000100	#8-392      9-659
WCE   	= 040000	#8-375      10-793
WCF   	= 000040	#8-408
WEP   	= 000010	#11-1229   #22-2240   #46-4047   #61-4716
WFDNR 	  000416 RG	#8-469      9-684
WFDTD 	  002362 R	#11-1249    11-1339
WFDTQ 	  002356 R	#11-1247    11-1286
WFEF1 	  003314 R	#18-1924    19-1937
DRIVERS10  CREATED BY  MACRO  ON 3-APR-86 AT 20:50	PAGE 15

SYMBOL CROSS REFERENCE                                  CREF

SYMBOL	VALUE		REFERENCES

WFMKT 	  002420 R	#11-1255    11-1358
WLE   	= 004000	#8-402      10-717     10-722
WRL   	= 004000	#8-389
WRTHDR	  016672 R	 66-5235    66-5235    68-5331    68-5331   #68-5343
W.TSEF	= 000002	#8-458     #8-464     #8-470     #11-1247   #11-1249   #11-1255
ZSTOP 	= 040000	#11-1229   #22-2240   #46-4047   #61-4716
$CDINT	  013566 RG	#56-4559
$CD11 	= 000001	#1-39
$DBDTE	= 000001	#1-45
$DH11 	= 000001	#1-43
$DIRAC	= 000001	#8-331      9-543     #18-1885    19-1958    21-2108
$DIV  	  000032 RG	#6-264      9-607      9-607      10-862     10-862     69-5462    69-5462
$DSW  	= ******  GX	 67-5298    67-5303
$DTA  	= 000001	#1-55       10-1187
$DTE  	= 000001	#1-46
$DTINT	  002774 RG	#11-1366
$FE   	= 000001	#1-41
$F11  	= 000001	#1-42
$LPINT	  010454 RG	#39-3490
$LP20 	= 000001	#1-37
$MUL  	  000000 RG	#6-237
$RP04 	= 000001	#1-40
$RX11 	= ******	 12-1449
$TOP10	= 000001	#1-35       1-53       3-110
$TOP20	= ******	 1-61       3-117
$T1091	= ******	 1-49       1-54       3-111
$$    	= 000037	#9-540      9-540     #9-607      9-607     #9-673      9-673     #10-771     10-771    #10-774
                         10-774    #10-862     10-862    #10-881     10-881    #10-891     10-891    #10-897     10-897
                        #10-898     10-898    #10-899     10-899    #10-906     10-906    #10-1163    10-1163   #11-1288
                         11-1288   #11-1342    11-1342   #11-1437    11-1437   #19-1956    19-1956   #19-1971    19-1971
                        #19-1976    19-1976   #19-1985    19-1985   #19-2019    19-2019   #19-2028    19-2028   #20-2056
                         20-2056   #21-2102    21-2102   #21-2116    21-2116   #21-2167    21-2167   #30-2629    30-2629
                        #30-2642    30-2642   #31-2666    31-2666   #32-2730    32-2730   #32-2738    32-2738   #32-2762
                         32-2762   #32-2788    32-2788   #32-2833    32-2833   #32-2868    32-2868   #32-2875    32-2875
                        #33-2905    33-2905   #33-2960    33-2960   #33-2968    33-2968   #33-2994    33-2994   #34-3065
                         34-3065   #35-3200    35-3200   #35-3301    35-3301   #36-3383    36-3383   #39-3509    39-3509
                        #39-3554    39-3554   #39-3574    39-3574   #40-3686    40-3686   #40-3691    40-3691   #40-3734
                         40-3734   #41-3805    41-3805   #42-3842    42-3842   #43-3901    43-3901   #43-3906    43-3906
                        #44-3970    44-3970   #51-4218    51-4218   #51-4229    51-4229   #52-4244    52-4244   #52-4272
                         52-4272   #52-4284    52-4284   #52-4303    52-4303   #52-4337    52-4337   #53-4487    53-4487
                        #56-4573    56-4573   #57-4602    57-4602   #58-4627    58-4627   #59-4656    59-4656   #63-4869
                         63-4869   #63-4902    63-4902   #63-4910    63-4910   #63-4912    63-4912   #63-4931    63-4931
                        #63-4952    63-4952   #63-4984    63-4984   #63-5007    63-5007   #64-5018    64-5018   #64-5027
                         64-5027   #64-5034    64-5034   #64-5048    64-5048   #64-5054    64-5054   #64-5058    64-5058
                        #65-5095    65-5095   #65-5098    65-5098   #65-5101    65-5101   #65-5103    65-5103   #66-5182
                         66-5182   #66-5192    66-5192   #66-5230    66-5230   #66-5235    66-5235   #66-5240    66-5240
                        #66-5241    66-5241   #66-5246    66-5246   #66-5247    66-5247   #66-5252    66-5252   #66-5264
                         66-5264   #66-5271    66-5271   #66-5278    66-5278   #66-5282    66-5282   #67-5297    67-5297
                        #67-5306    67-5306   #68-5331    68-5331   #68-5352    68-5352   #68-5364    68-5364   #69-5412
                         69-5412   #69-5414    69-5414   #69-5416    69-5416   #69-5418    69-5418   #69-5423    69-5423
                        #69-5425    69-5425   #69-5450    69-5450   #69-5462    69-5462
$$$   	= 000251 R	#35-3316    35-3316   #35-3316    35-3316   #35-3316    35-3316   #35-3316    35-3316   #35-3316
DRIVERS10  CREATED BY  MACRO  ON 3-APR-86 AT 20:50	PAGE 16

SYMBOL CROSS REFERENCE                                  CREF

SYMBOL	VALUE		REFERENCES

                         35-3316    35-3316    35-3316    35-3316    35-3316    35-3316   #35-3316    35-3316    35-3316
                         35-3316    35-3316    35-3316   #35-3316    35-3316    35-3316    35-3316    35-3316    35-3316
                        #35-3316    35-3316    35-3316    35-3316    35-3316    35-3316   #35-3316   #37-3425    37-3425
                        #37-3425    37-3425   #37-3425    37-3425   #37-3425    37-3425    37-3425    37-3425    37-3425
                         37-3425   #37-3425    37-3425    37-3425    37-3425    37-3425   #37-3425    37-3425    37-3425
                         37-3425    37-3425   #37-3425   #39-3579    39-3579   #39-3579    39-3579   #39-3579    39-3579
                        #39-3579    39-3579    39-3579    39-3579    39-3579    39-3579   #39-3579    39-3579    39-3579
                         39-3579    39-3579   #39-3579    39-3579    39-3579    39-3579    39-3579   #39-3579   #40-3739
                         40-3739   #40-3739    40-3739   #40-3739    40-3739   #40-3739    40-3739    40-3739    40-3739
                         40-3739    40-3739   #40-3739    40-3739    40-3739    40-3739    40-3739   #40-3739    40-3739
                         40-3739    40-3739    40-3739   #40-3739   #41-3807    41-3807   #41-3807    41-3807   #41-3807
                         41-3807   #41-3807    41-3807    41-3807    41-3807    41-3807    41-3807   #41-3807    41-3807
                         41-3807    41-3807    41-3807   #41-3807    41-3807    41-3807    41-3807    41-3807   #41-3807
                        #42-3844    42-3844   #42-3844    42-3844    42-3844    42-3844   #42-3844   #43-3907    43-3907
                        #43-3907    43-3907   #43-3907    43-3907    43-3907    43-3907    43-3907   #43-3907    43-3907
                         43-3907    43-3907   #43-3907   #63-4912    63-4912   #63-4931    63-4931   #63-5007    63-5007
                        #65-5095    65-5095   #65-5098    65-5098   #65-5101    65-5101   #65-5103    65-5103   #66-5246
                         66-5246   #67-5306    67-5306
$$$ARG	= 000003	#8-473      8-473     #8-473      8-473     #8-473      8-473     #11-1251    11-1251   #11-1251
                         11-1251   #11-1251    11-1251   #35-3246    35-3246   #35-3246    35-3246   #35-3246    35-3246
                        #35-3246    35-3246   #63-4880    63-4880   #63-4880    63-4880   #63-4880    63-4880   #63-4880
                         63-4880    63-4880    63-4880    63-4880    63-4880    63-4880    63-4880    63-4880    63-4880
                         63-4880   #63-5001    63-5001   #63-5001    63-5001   #63-5001    63-5001   #63-5001    63-5001
                         63-5001    63-5001    63-5001    63-5001    63-5001    63-5001    63-5001    63-5001    63-5001
                        #68-5393    68-5393    68-5393    68-5393    68-5393    68-5393    68-5393    68-5393    68-5393
                         68-5393    68-5393    68-5393   #69-5431    69-5431    69-5431    69-5431    69-5431    69-5431
                         69-5431    69-5431    69-5431    69-5431    69-5431    69-5431
$$$GLB	= ******	 8-458      8-458      8-461      8-461      8-464      8-464      8-467      8-467      8-467
                         8-467      8-467      8-470      8-470      8-473      8-473      8-473      8-473      8-473
                         8-473      8-473      8-473      11-1247    11-1247    11-1249    11-1249    11-1251    11-1251
                         11-1251    11-1251    11-1251    11-1251    11-1251    11-1251    11-1253    11-1253    11-1253
                         11-1253    11-1253    11-1255    11-1255    18-1924    30-2604    30-2604    30-2604    30-2604
                         30-2604    30-2606    30-2606    30-2606    30-2606    30-2606    35-3246    35-3246    35-3246
                         35-3246    35-3246    35-3246    35-3246    35-3246    49-4160    49-4160    49-4160    49-4160
                         49-4160
$$$OST	= 000012	#8-458      8-458      8-458     #8-458     #8-461      8-461      8-461     #8-461     #8-464
                         8-464      8-464     #8-464     #8-467      8-467      8-467     #8-467      8-467      8-467
                        #8-467      8-467      8-467     #8-467      8-467      8-467     #8-467     #8-470      8-470
                         8-470     #8-470     #8-473      8-473      8-473     #8-473      8-473      8-473     #8-473
                         8-473      8-473     #8-473      8-473      8-473     #8-473      8-473      8-473     #8-473
                         8-473      8-473     #8-473      8-473     #11-1247    11-1247    11-1247   #11-1247   #11-1249
                         11-1249    11-1249   #11-1249   #11-1251    11-1251    11-1251   #11-1251    11-1251    11-1251
                        #11-1251    11-1251    11-1251   #11-1251    11-1251    11-1251   #11-1251    11-1251    11-1251
                        #11-1251    11-1251    11-1251   #11-1251    11-1251   #11-1253    11-1253    11-1253   #11-1253
                         11-1253    11-1253   #11-1253    11-1253    11-1253   #11-1253    11-1253    11-1253   #11-1253
                        #11-1255    11-1255    11-1255   #11-1255   #30-2604    30-2604    30-2604   #30-2604    30-2604
                         30-2604   #30-2604    30-2604    30-2604   #30-2604    30-2604    30-2604   #30-2604   #30-2606
                         30-2606    30-2606   #30-2606    30-2606    30-2606   #30-2606    30-2606    30-2606   #30-2606
                         30-2606    30-2606   #30-2606   #35-3246    35-3246    35-3246   #35-3246    35-3246    35-3246
                        #35-3246    35-3246    35-3246   #35-3246    35-3246    35-3246   #35-3246    35-3246    35-3246
                        #35-3246    35-3246    35-3246   #35-3246    35-3246   #49-4160    49-4160    49-4160   #49-4160
                         49-4160    49-4160   #49-4160    49-4160    49-4160   #49-4160    49-4160    49-4160   #49-4160
DRIVERS10  CREATED BY  MACRO  ON 3-APR-86 AT 20:50	PAGE 17

SYMBOL CROSS REFERENCE                                  CREF

SYMBOL	VALUE		REFERENCES

$$$T1 	= 000011	#63-4866    63-4866   #68-5393    68-5393   #69-5431    69-5431
$$$T2 	= 000000	#67-5296    67-5296
$$$$  	= 000002	#35-3316    35-3316   #35-3316    35-3316    35-3316   #35-3316    35-3316    35-3316   #35-3316
                         35-3316    35-3316   #35-3316    35-3316   #35-3316    35-3316   #35-3316    35-3316    35-3316
                        #35-3316    35-3316    35-3316   #35-3316    35-3316    35-3316   #35-3316    35-3316   #35-3316
                         35-3316   #35-3316    35-3316    35-3316   #35-3316    35-3316    35-3316   #35-3316    35-3316
                         35-3316   #35-3316    35-3316   #35-3316    35-3316   #35-3316    35-3316    35-3316   #35-3316
                         35-3316    35-3316   #35-3316    35-3316    35-3316   #35-3316    35-3316   #37-3425    37-3425
                        #37-3425    37-3425    37-3425   #37-3425    37-3425    37-3425   #37-3425    37-3425   #37-3425
                         37-3425   #37-3425    37-3425    37-3425   #37-3425    37-3425    37-3425   #37-3425    37-3425
                        #37-3425    37-3425   #37-3425    37-3425    37-3425   #37-3425    37-3425    37-3425   #37-3425
                         37-3425   #39-3579    39-3579   #39-3579    39-3579    39-3579   #39-3579    39-3579    39-3579
                        #39-3579    39-3579   #39-3579    39-3579   #39-3579    39-3579    39-3579   #39-3579    39-3579
                         39-3579   #39-3579    39-3579   #39-3579    39-3579   #39-3579    39-3579    39-3579   #39-3579
                         39-3579    39-3579   #39-3579    39-3579   #40-3739    40-3739   #40-3739    40-3739    40-3739
                        #40-3739    40-3739    40-3739   #40-3739    40-3739   #40-3739    40-3739   #40-3739    40-3739
                         40-3739   #40-3739    40-3739    40-3739   #40-3739    40-3739   #40-3739    40-3739   #40-3739
                         40-3739    40-3739   #40-3739    40-3739    40-3739   #40-3739    40-3739   #41-3807    41-3807
                        #41-3807    41-3807    41-3807   #41-3807    41-3807    41-3807   #41-3807    41-3807   #41-3807
                         41-3807   #41-3807    41-3807    41-3807   #41-3807    41-3807    41-3807   #41-3807    41-3807
                        #41-3807    41-3807   #41-3807    41-3807    41-3807   #41-3807    41-3807    41-3807   #41-3807
                         41-3807   #42-3844    42-3844   #42-3844    42-3844   #43-3907    43-3907   #43-3907    43-3907
                         43-3907   #43-3907    43-3907   #43-3907    43-3907   #43-3907    43-3907    43-3907   #43-3907
                         43-3907
.BGBUF	= ******  GX	 32-2787    32-2827    64-5025    64-5032    66-5275
.BRCLK	= 005000	#11-1229   #22-2240   #46-4047   #61-4716
.CECLK	= 004000	#11-1229   #22-2240   #46-4047   #61-4716
.CLRMR	= 006000	#11-1229   #22-2240   #46-4047   #61-4716
.CLRUN	= 010000	#11-1229   #22-2240   #46-4047   #61-4716
.COMEF	= ******  GX	 10-1158    19-1942    35-3141    52-4298    53-4393
.CONBT	= 012000	#11-1229   #22-2240   #46-4047   #61-4716
.CRPFL	= ******  GX	 52-4242   *52-4245
.CRTSK	= ******  GX	 30-2636    51-4223    63-4883
.CSHRG	= 164000	#11-1229   #22-2240   #46-4047   #61-4716
.CYLTM	= 000074	#22-2292    30-2604    30-2604    30-2606   #46-4067    49-4160    49-4160
.DBINT	  001236 RG	#10-698
.DRLTC	= 015000	#11-1229   #22-2240   #46-4047   #61-4716
.DSACF	= 066000	#11-1229   #22-2240   #46-4047   #61-4716
.DSIOJ	= 065000	#11-1229   #22-2240   #46-4047   #61-4716
.EIOJA	= 067000	#11-1229   #22-2240   #46-4047   #61-4716
.FEACK	  004242 RG	#20-2041
.FEST 	  004346 RG	#21-2068
.GFNR 	= 102000	#11-1229   #22-2240   #46-4047   #61-4716
.INICL	= 070000	#11-1229   #22-2240   #46-4047   #61-4716
.IRLTC	= 014000	#11-1229   #22-2240   #46-4047   #61-4716
.LCRDL	= 052000	#11-1229   #22-2240   #46-4047   #61-4716
.LCRDR	= 051000	#11-1229   #22-2240   #46-4047   #61-4716
.LCRM1	= 057000	#11-1229   #22-2240   #46-4047   #61-4716
.LCRM2	= 056000	#11-1229   #22-2240   #46-4047   #61-4716
.LCRM3	= 055000	#11-1229   #22-2240   #46-4047   #61-4716
.LCRM4	= 054000	#11-1229   #22-2240   #46-4047   #61-4716
.LCRM5	= 053000	#11-1229   #22-2240   #46-4047   #61-4716
DRIVERS10  CREATED BY  MACRO  ON 3-APR-86 AT 20:50	PAGE 18

SYMBOL CROSS REFERENCE                                  CREF

SYMBOL	VALUE		REFERENCES

.LDAR 	= 077000	#11-1229   #22-2240   #46-4047   #61-4716
.LDBRL	= 043000	#11-1229   #22-2240   #46-4047   #61-4716
.LDBRR	= 042000	#11-1229   #22-2240   #46-4047   #61-4716
.LDCK1	= 046000	#11-1229   #22-2240   #46-4047   #61-4716
.LDCK2	= 047000	#11-1229   #22-2240   #46-4047   #61-4716
.LDDIS	= 045000	#11-1229   #22-2240   #46-4047   #61-4716
.LDRJD	= 064000	#11-1229   #22-2240   #46-4047   #61-4716
.LDRJV	= 063000	#11-1229   #22-2240   #46-4047   #61-4716
.LDRM1	= 060000	#11-1229   #22-2240   #46-4047   #61-4716
.LDRM2	= 061000	#11-1229   #22-2240   #46-4047   #61-4716
.LDRM3	= 062000	#11-1229   #22-2240   #46-4047   #61-4716
.LDSEL	= 044000	#11-1229   #22-2240   #46-4047   #61-4716
.LPPFL	= ******  GX	 31-2664   *31-2667
.MEMRS	= 076000	#11-1229   #22-2240   #46-4047   #61-4716
.PCAB1	= 150000	#11-1229   #22-2240   #46-4047   #61-4716
.PCAB2	= 151000	#11-1229   #22-2240   #46-4047   #61-4716
.PCAB3	= 152000	#11-1229   #22-2240   #46-4047   #61-4716
.PCAB4	= 153000	#11-1229   #22-2240   #46-4047   #61-4716
.POLLH	= ******  GX	 66-5270
.PUDBA	= ******  GX	 63-4874    65-5118    66-5203
.PUDEA	= ******  GX	 63-4992    66-5211
.RCRM1	= 147000	#11-1229   #22-2240   #46-4047   #61-4716
.RCRM2	= 146000	#11-1229   #22-2240   #46-4047   #61-4716
.RCRM3	= 145000	#11-1229   #22-2240   #46-4047   #61-4716
.RCRM4	= 144000	#11-1229   #22-2240   #46-4047   #61-4716
.RCSPF	= 141000	#11-1229   #22-2240   #46-4047   #61-4716
.RDJ14	= 134000	#11-1229   #22-2240   #46-4047   #61-4716
.RDJ71	= 135000	#11-1229   #22-2240   #46-4047   #61-4716
.RDMAB	= 133000	#11-1229   #22-2240   #46-4047   #61-4716
.RPELC	= ******  GX	 10-1160   *10-1165
.RPELQ	= ******  GX	 10-1166
.RPUNT	= ******  GX	 19-1999
.SECLK	= 003000	#11-1229   #22-2240   #46-4047   #61-4716
.SETMR	= 007000	#11-1229   #22-2240   #46-4047   #61-4716
.SETRN	= 011000	#11-1229   #22-2240   #46-4047   #61-4716
.SSCLK	= 002000	#11-1229   #22-2240   #46-4047   #61-4716
.STDTA	= ******  GX	 66-5256
.STDTZ	= ******  GX	*66-5254    66-5255
.STPCL	= 000000	#11-1229   #22-2240   #46-4047   #61-4716
.STRCL	= 001000	#11-1229   #22-2240   #46-4047   #61-4716
.TPDBA	= ******  GX	 65-5084
.TPDEA	= ******  GX	 65-5092
.WRMBX	= 071000	#11-1229   #22-2240   #46-4047   #61-4716
..AKCR	  013720 RG	#59-4647
..AKLP	  011372 RG	#42-3829
..ALCB	= ******  GX	 10-1163    10-1163
..ALC2	= ******  GX	 32-2833    32-2833    64-5027    64-5027    64-5034    64-5034
..DECB	= ******  GX	 32-2875    32-2875
..DECN	= ******  GX	 21-2102    21-2102    40-3691    40-3691    57-4602    57-4602
..DEC2	= ******  GX	 32-2788    32-2788    66-5278    66-5278    66-5282    66-5282
..DOLP	  011614 RG	 36-3383    36-3383    39-3554    39-3554   #44-3945
..DOL1	  011600 RG	 34-3065    34-3065    39-3509    39-3509   #44-3939
DRIVERS10  CREATED BY  MACRO  ON 3-APR-86 AT 20:50	PAGE 19

SYMBOL CROSS REFERENCE                                  CREF

SYMBOL	VALUE		REFERENCES

..DQRN	= ******  GX	 9-540      9-540      11-1288    11-1288    19-1956    19-1956    19-1985    19-1985    33-2905
                         33-2905
..DSEV	= ******  GX	 10-771     10-771     11-1437    11-1437    39-3574    39-3574    40-3686    40-3686    41-3805
                         41-3805    42-3842    42-3842    43-3901    43-3901    44-3970    44-3970    59-4656    59-4656
..ENB0	= ******  GX	 19-1976    19-1976    43-3906    43-3906    66-5264    66-5264    67-5297    67-5297
..FSTD	= ******  GX	 63-4902    63-4902    66-5252    66-5252
..INTX	= ******  GX	 10-780     11-1441    39-3580    56-4577
..IODN	= ******  GX	 9-673      9-673      11-1342    11-1342    19-1971    19-1971    19-2028    19-2028    21-2116
                         21-2116    32-2868    32-2868    33-2968    33-2968
..NADD	= ******  GX	 66-5271    66-5271
..PTLP	  011452 RG	 33-2994    33-2994    40-3734    40-3734   #43-3868
..SACK	= ******  GX	 21-2105    32-2762    32-2762
..SPCR	  013676 RG	#58-4625
..SPLP	  011220 RG	 33-2960    33-2960    35-3200    35-3200   #41-3768
..STCR	  013654 RG	#57-4601
..STIN	= ******  GX	 19-2035    35-3301    35-3301    52-4272    52-4272    53-4487    53-4487
..STLP	  011010 RG	#40-3651
DRIVERS10  CREATED BY  MACRO  ON 3-APR-86 AT 20:50	PAGE 20

MACRO CROSS REFERENCE                                   CREF

MACRO NAME	REFERENCES

ALUN$ 		#22-2238
ALUN$S		#61-4715   #63-4880   #63-5001
CALL  		#8-343      9-540      9-607      9-673      10-771     10-774     10-862     10-881     10-891     10-897
                 10-898     10-899     10-906     10-1163   #11-1228    11-1288    11-1342    11-1437   #18-1915    19-1956
                 19-1971    19-1976    19-1985    19-2019    19-2028    20-2056    21-2102    21-2116    21-2167   #22-2239
                 30-2629    30-2642    31-2666    32-2730    32-2738    32-2762    32-2788    32-2833    32-2868    32-2875
                 33-2905    33-2960    33-2968    33-2994    34-3065    35-3200    35-3301    36-3383    39-3509    39-3554
                 39-3574    40-3686    40-3691    40-3734    41-3805    42-3842    43-3901    43-3906    44-3970   #46-4046
                 51-4218    51-4229    52-4244    52-4272    52-4284    52-4303    52-4337    53-4487    56-4573    57-4602
                 58-4627    59-4656   #61-4715    63-4869    63-4902    63-4910    63-4912    63-4931    63-4952    63-4984
                 63-5007    64-5018    64-5027    64-5034    64-5048    64-5054    64-5058    65-5095    65-5098    65-5101
                 65-5103    66-5182    66-5192    66-5230    66-5235    66-5240    66-5241    66-5246    66-5247    66-5252
                 66-5264    66-5271    66-5278    66-5282    67-5297    67-5306    68-5331    68-5352    68-5364    69-5412
                 69-5414    69-5416    69-5418    69-5423    69-5425    69-5450    69-5462
CALLR 		#18-1915    19-2035    21-2105
CLEF$ 		#8-343      8-461
DIR$  		#8-343     #9-538     #9-627     #9-627     #9-667     #9-668     #9-682     #9-683     #9-684     #11-1228
                #11-1286   #11-1339   #11-1356   #11-1357   #11-1358   #18-1914   #19-1937   #22-2238   #30-2639   #30-2640
                #30-2640   #30-2641   #30-2641   #31-2657   #31-2657   #32-2835   #32-2835   #35-3140   #35-3140   #35-3242
                #36-3347   #36-3349   #36-3349   #46-4046   #51-4226   #51-4227   #51-4227   #51-4228   #51-4228   #52-4236
                #52-4236   #52-4297   #52-4297   #53-4392   #53-4392   #63-4866   #63-4866   #63-4880   #63-4880   #63-5001
                #63-5001   #64-5019   #64-5019   #67-5296   #67-5296   #68-5393   #68-5393   #69-5431   #69-5431
ERR   		#61-4730   #63-4912   #63-5007   #65-5095   #65-5098   #65-5101   #65-5103   #66-5246   #67-5306
ERRF  		#61-4734    65-5095    65-5098    65-5101
ERRN  		#61-4739    67-5306
ERR$  		#9-538     #9-627     #9-667     #9-668     #9-682     #9-683     #9-684     #11-1286   #11-1339   #11-1356
                #11-1357   #11-1358   #19-1937   #30-2639   #30-2640   #30-2641   #31-2657   #32-2835   #35-3140   #35-3242
                #36-3347   #36-3349   #51-4226   #51-4227   #51-4228   #52-4236   #52-4297   #53-4392   #63-4866   #63-4880
                #63-5001   #64-5019   #67-5296   #68-5393   #69-5431
IDENT$		#4-148
MOV$  		#30-2640   #30-2640   #30-2640   #30-2641   #30-2641   #31-2657   #31-2657   #36-3349   #36-3349   #51-4227
                #51-4227   #51-4227   #51-4228   #51-4228   #52-4236   #52-4236   #63-4866   #63-4866   #63-4880   #63-4880
                #63-4880   #63-4880   #63-4880   #63-5001   #63-5001   #63-5001   #63-5001   #63-5001   #67-5296   #67-5296
                #68-5393   #68-5393   #68-5393   #68-5393   #68-5393   #68-5393   #68-5393   #68-5393   #68-5393   #68-5393
                #68-5393   #68-5393   #69-5431   #69-5431   #69-5431   #69-5431   #69-5431   #69-5431   #69-5431   #69-5431
                #69-5431
MRKT$ 		#8-343     #8-467     #11-1228   #11-1253   #22-2238   #30-2604   #30-2606   #46-4045   #49-4160
MSG   		#61-4721   #63-4912   #63-4931   #63-5007   #65-5095   #65-5098   #65-5101   #65-5103   #66-5246   #67-5306
MVB$  		#67-5296   #67-5296   #68-5393   #68-5393   #69-5431   #69-5431
NBL$  		#63-4880   #63-4880   #63-5001   #63-5001
OFF$  		#8-458      8-458      8-458     #8-461      8-461      8-461     #8-464      8-464      8-464     #8-467
                 8-467      8-467      8-467      8-467      8-467     #8-470      8-470      8-470     #8-473      8-473
                 8-473      8-473      8-473      8-473      8-473      8-473      8-473     #11-1247    11-1247    11-1247
                #11-1249    11-1249    11-1249   #11-1251    11-1251    11-1251    11-1251    11-1251    11-1251    11-1251
                 11-1251    11-1251   #11-1253    11-1253    11-1253    11-1253    11-1253    11-1253   #11-1255    11-1255
                 11-1255   #30-2604    30-2604    30-2604    30-2604    30-2604    30-2604   #30-2606    30-2606    30-2606
                 30-2606    30-2606    30-2606   #35-3246    35-3246    35-3246    35-3246    35-3246    35-3246    35-3246
                 35-3246    35-3246   #49-4160    49-4160    49-4160    49-4160    49-4160    49-4160
POP   		#22-2239    32-2789    32-2854    32-2869    35-3302    35-3316    35-3316    35-3316    35-3316    36-3385
                 37-3425    37-3425    37-3425    39-3537    39-3543    39-3579    39-3579    39-3579    40-3739    40-3739
                 40-3739    41-3807    41-3807    41-3807    42-3844    43-3907    43-3907   #46-4046   #61-4715    68-5354
                 68-5365    69-5432    69-5433    69-5472
DRIVERS10  CREATED BY  MACRO  ON 3-APR-86 AT 20:50	PAGE 21

MACRO CROSS REFERENCE                                   CREF

MACRO NAME	REFERENCES

PUSH  		#22-2239    32-2701    32-2784    32-2824    32-2863    35-3136    35-3297    36-3381    37-3405    39-3492
                 39-3529    40-3652    41-3769    42-3830    43-3869   #46-4046   #61-4715    63-4912    63-4931    63-5007
                 65-5095    65-5098    65-5101    65-5103    66-5246    67-5306    68-5349    68-5359    69-5409    69-5463
QDPB$ 		#8-473     #8-473     #11-1251   #11-1251   #35-3246   #35-3246
QDPB$S		#68-5393    68-5393   #69-5431    69-5431
QIOSY$		#8-343     #8-345     #11-1227   #11-1230   #22-2238   #22-2241   #61-4715   #61-4717
QIOW$ 		#8-343      8-473     #11-1228    11-1251   #22-2238    35-3246
QIOW$S		#61-4715    68-5393    69-5431
RCVX$S		#61-4715   #63-4866
RESTOR		#35-3136   #35-3316   #37-3405   #37-3425   #39-3492   #39-3579   #40-3652   #40-3739   #41-3769   #41-3807
                #42-3830   #42-3844   #43-3869   #43-3907
RETURN		#6-217     #6-276     #8-343     #10-1014   #10-1051   #10-1186   #11-1228   #18-1915   #20-2060   #22-2239
                #35-3317   #36-3390   #37-3426   #40-3740   #41-3808   #42-3845   #43-3908   #44-4001   #46-4046   #53-4494
                #54-4508   #58-4629   #59-4657   #61-4715   #66-5286   #68-5355   #68-5366   #68-5400   #69-5434   #69-5443
                #69-5475
RFA$  		#63-4866   #63-4866   #67-5296   #67-5296   #67-5296
RQST$S		#61-4715   #67-5296
RVP$  		#31-2657   #52-4236   #63-4880    63-4880   #63-5001    63-5001   #68-5393    68-5393   #69-5431    69-5431
SAVE  		#22-2247   #35-3136   #37-3405   #39-3492   #40-3652   #41-3769   #42-3830   #43-3869
SPRA$S		#22-2238   #30-2641   #46-4045   #51-4228
SVTK$S		#22-2238    30-2640   #46-4045    51-4227
VDPB$S		#63-4866   #63-4866
WSIG$S		#8-343      9-627     #22-2238    32-2835    35-3140   #46-4045    52-4297    53-4392   #61-4715    64-5019
WTLO$ 		#18-1914    18-1924
WTLO$S		#22-2238    31-2657   #46-4045    52-4236
WTSE$ 		#8-343     #8-458     #8-464     #8-470     #11-1228   #11-1247   #11-1249   #11-1255
WTSE$S		#22-2238    36-3349   #46-4045
$DEF  		#11-1227   #11-1229   #22-2239   #22-2240   #46-4046   #46-4047   #61-4715   #61-4716
.ENB  		#18-1914   #21-2158   #22-2239   #31-2663   #32-2751   #46-4046   #52-4241
.ENB0 		#18-1914    19-1976   #22-2239    43-3906   #61-4715    66-5264    67-5297
.ENB4 		#22-2297   #34-3067   #36-3384
.ENB6 		#18-1914    20-2058
.INH  		#18-1914    21-2138   #22-2239    31-2660    32-2744   #46-4046    52-4238
.INH0 		#18-1914    19-1938   #22-2239    43-3883   #61-4715    66-5250    67-5292
.INH4 		#22-2293    34-3055    36-3382
.INH6 		#18-1914    20-2053
.STKM 		#8-343     #8-455     #11-1228   #11-1245   #18-1914   #18-1935   #22-2239   #27-2502   #46-4046   #49-4135
                #61-4715   #62-4799
